:020000003128A5
:100008007E14803120007F08F30021001908873909
:10001800603899002000911F252891131608F000D8
:10002800F1017008F7007108F8001708F000F101F5
:100038007008F100F0017008F7047108F8049701DE
:1000480096010B1D29280B11791487302100990579
:1000580073082000FF007E1009003228F701F8011C
:10006800F90186308400813085002B30860000300D
:1000780087000A3090217E102000422823008C013E
:100088008D0121008D018C01873099058B170B1785
:100098002F00911791121108F33908389100FC309C
:1000A8009105121392161216F030920593179310B9
:1000B8009401FF309800F730990001309B00150833
:1000C8003F39803895001508CF39203895000B1135
:1000D8008B162100951295111508F83903389500EB
:1000E800200097019601911321009117200018080C
:1000F8003F39803898009815303098041815FC302E
:100108009905991719179916181414303F21791C55
:100118008B28791004302000A0000030A100780856
:10012800A301A3077708A201A207A32020002008A3
:100138003F21F91CA128F9108B28F9148B282000DD
:10014800A501A11FAE28A009A109A00A0319A10AA7
:10015800A501A50AA31FB928A209A309A20A031980
:10016800A30A0130F4007408A506A601A701210816
:1001780020040319E828A401A40AA11BCD280130F2
:10018800A035A10D890BC4280130F4007408A40718
:10019800C1280130A635A70D890BCE2821082302D6
:1001A800031DD82820082202031CDF282008A202E9
:1001B8002108A33B26140130A136A00C890BE028A6
:1001C8000130A402031DCD2825080319F028A6092B
:1001D800A709A60A0319A70A2708A101A107260843
:1001E800A001A0070800F6012000A31F0229A20908
:1001F800A309A20A0319A30AF601F60AA11F0929ED
:10020800A009A109A00A0319A10A210820040319B9
:100218003029F501F50AA11B1B290130A035A10DD4
:10022800890B12290130F4007408F5070F292108F9
:100238002302031D212920082202031C2729200844
:10024800A2022108A33B0130A136A00C890B282962
:100258000130F502031D1B29760803193829A20964
:10026800A309A20A0319A30A2308A101A1072208C6
:10027800A001A00708002000AA000A30A000003052
:10028800A1002A08A800A9012808A2002908A3009B
:10029800A320200021082004031967290A30A000A0
:1002A8000030A1002A08A800A9012808A2002908EE
:1002B800A300A320200020082B3E86008701010808
:1002C8002F00A00069292F00A001F91820140A3076
:1002D8002000A0000030A1002A08A800A9012808D1
:1002E800A2002908A300F720200020082B3E860042
:1002F800870101082F00A100A11D84292C140800E2
:100308002C1008007E341834B634BC34D834EC349D
:10031800EE343834FE34FC34FE0012001E00FE0BAE
:0403280091290034E3
:020000040001F9
:04000E00E4F9FFFB17
:00000001FF
