:0400000080313428EF
:100008007E14803120007F08F300911F202891136F
:100018001608F000F1017008CD007108CE0017082D
:10002800F000F1017008F100F0017008CD047108CA
:10003800CE0497019601F9140B1D24280B1179148D
:10004800911E2F2823001908F0007008F8001D1DC4
:100058009D182F28791573082000FF007E100900CD
:1000680080313628F601F701F801F901CF01D001F6
:10007800D101D201D301D401183084008430850025
:100088003B30860000308700143084317E247E1097
:100098002000813146292000B00030087F393B3EDE
:1000A800860087010108A8002808AF00B1010730C1
:1000B80031020318DE287508A800A901A835A90D82
:1000C800A835A90DA835A90D3F30AA008430AB008A
:1000D80028082A07AC0029082B3DAD0031082C0759
:1000E80084002D0803182D0A85000008AE002E088C
:1000F800B2000130A800310A8228A835890B81286E
:1001080028082F050319AF280130A800320807393D
:10011800890A8F28A835890B8E282808A900083055
:10012800A0000030A1003208AA00AB012A08A200F2
:100138002B08A3008231B9228031A0302000AC0006
:100148000730AD0020082C07860021082D3D8700C8
:1001580029088104D6280130A80032080739890AFD
:10016800B628A835890BB5282808FF3AA900083011
:10017800A0000030A1003208AA00AB012A08A200A2
:100188002B08A3008231B9228031A0302000AC00B6
:100198000730AD0020082C07860021082D3D870078
:1001A800290881050130A8002808B1070730310265
:1001B800031C5F287508A800A901A835A90DA83552
:1001C800A90DA835A90D2808073EAA000030293D29
:1001D800AB003F302A07840084302B3D850000089F
:1001E800AC002C08B200B01F1F290130A80032084B
:1001F8000739890A0029A835890BFF282808A9008A
:100208000830A0000030A1003208AA00AB012A087B
:10021800A2002B08A3008231B922A0302000AC0034
:100228000730AD0020082C07860021082D3D8700E7
:100238002908810408000130A80032080739890A12
:100248002629A835890B25292808FF3AA90008304E
:10025800A0000030A1003208AA00AB012A08A200C1
:100268002B08A3008231B922A0302000AC0007304F
:10027800AD0020082C07860021082D3D870029089D
:100288008105080023008C018D0121008D018C015E
:100298000E16873099058B170B178331C3238131CD
:1002A80084316B2481318431002481317910F91033
:1002B8007911F030F4001F30F50084314F2481317A
:1002C80074082000B9003908D500DA29791CDA2920
:1002D8007910210095161908873938389900F91CC2
:1002E800BF29F9102000D2010D30A0000030A10074
:1002F8004E08A3004D08A2008331E4238131200079
:100308002108CE002008CD004E08A5004D08A40005
:100318005508B900BA013908A0003A08A1002730E9
:10032800A2000130A3008331E42381312000210899
:10033800A7002008A60083318E23813120002508DC
:10034800D0002408CF0000305002643003194F0257
:10035800031CB2296330CF000030D0004F08B90029
:100368003908F600770C0139FF3AB900B90D77085A
:100378003906FD39CC2901302000B9003908D207E7
:10038800F60177080139FF3AB90077083906FE39CE
:100398003906F700F7117708B4007608B300823100
:1003A8003C22813187302100990595120B302000BD
:1003B8005202031C6A2920005108031DF829D101A3
:1003C800D10A78302100990484312C24813120000D
:1003D8005508B9003908F600F7157708B40076080B
:1003E800B30082313C228131791DDA2979117808EC
:1003F8002000B900BA013908D3003A08D400003007
:100408005402333003195302031CDA29530A5404E3
:100418000319DA29F030F4001F30F50084315E2426
:100428008131F0302000A0001F30A1005330B90006
:100438003908A200A301A30A833151238131F03086
:10044800F4001F30F50084314F24813174082000F6
:10045800B9003908D5005508B9003908F600F7156C
:100468007708B4007608B30082313C228131DA295A
:100478002000341D472A380880391038B800380859
:1004880080391038A42AB41D662A1030A000003024
:10049800A1003308B500B6013508A2003608A3004C
:1004A8008231B9228231200038082006803920069E
:1004B800B8000F303305B5003708350680393506E2
:1004C800B700A52A0A30A0000030A1003308B50003
:1004D800B6013508A2003608A3008231B92282315C
:1004E80020003808200680392006B8000A30A0000D
:1004F8000030A1003308B500B6013508A20036085F
:10050800A30083310B23823120003708200680396D
:100518002006B7000A30A0000030A1003308B5005B
:10052800B6013508A2003608A3008231B92282310B
:10053800200020082104031DA52A38088039113815
:10054800B800B8133418B8172000B713B418B71781
:10055800F5012000380880314F208231F501F50A75
:100568002000370880314F2008002000A501A11F76
:10057800C42AA009A109A00A0319A10AA501A50A6C
:10058800A31FCF2AA209A309A20A0319A30A0130AB
:10059800F4007408A506A601A70120082104031980
:1005A800FE2AA401A40AA11BE32A0130A035A10D4B
:1005B800890BDA2A0130F4007408A407D72A01301D
:1005C800A635A70D890BE42A21082302031DEE2A6C
:1005D80020082202031CF52A2008A2022108A33BB6
:1005E80026140130A136A00C890BF62A0130A4028A
:1005F800031DE32A25080319062BA609A709A60A3D
:100608000319A70A2708A1002608A000080020004F
:10061800A501A31F162BA209A309A20A0319A30A5D
:10062800A501A50AA11F1D2BA009A109A00A03194C
:10063800A10A200821040319442BA401A40AA11B20
:100648002F2B0130A035A10D890B262B0130F4008A
:100658007408A407232B21082302031D352B200827
:100668002202031C3B2B2008A2022108A33B0130D5
:10067800A136A00C890B3C2B0130A402031D2F2BA3
:10068800250803194C2BA209A309A20A0319A30AD6
:100698002308A1002208A00008002000A4012300CC
:1006A8001515151395162000A40123082402031814
:1006B800872B2008230091002000210823009200A6
:1006C80020002208860087010108230093002000EB
:1006D800220886008701403FF400413FF500750875
:1006E8002300940084317524833101302000A00751
:1006F8000030A13D0230F4007408A2070130F40074
:100708007408A407592B23009512843175242300FB
:10071800151108002000A901AA01240825040319BD
:10072800BE2BAB01AB0AA51BA32B0130A435A50D2D
:10073800890B9A2B0130A8002808AB07972B0130AA
:10074800A935AA0D890BA42B25082702031DAE2B5A
:1007580024082602031CB52B2408A6022508A73B5B
:1007680029140130A536A40C890BB62B0130AB0235
:10077800031DA32B2A08A5002908A40008002F00A0
:10078800911791121108F33908389100FC3091053E
:10079800121392161216F0309205931793109401C3
:1007A800FF309800F73099001910FF309B001508AA
:1007B8003F39803895001508CF3920389500080052
:1007C800F401F5012000201CED2B2208F407230872
:1007D800F53D0130A235A30D890BEE2B0130A13672
:1007E800A00C890BF32B20082104031DE62B7508A8
:1007F800A1007408A0000800200097019601911339
:1008080021009117200018083F3980389800981562
:100818001808CF39203898001815FC309905991711
:1008280019179916181408003F3406345B344F34EE
:1008380066346D347D3407347F346F3477347C34D8
:1008480039345E347934713440340034FF34FF3441
:1008580023009C01CF309B0021000E178E17230028
:100868009D171E121D1620009112210091162300BB
:100878009F111E1108000234613404340534073412
:10088800013403340C3409340A340D340E34623420
:100898000034603405347508230092007408910010
:1008A800151315140000000023001408F5001308A0
:1008B800F4000800750823009200740891001513CD
:1008C80015161515843175242300151108000B1110
:1008D8008B162100951295111508F83902389500E4
:1008E8000800553023009600AA30960095140000A1
:1008F80000000800FE0012001E00FE0B7F2C0034D2
:020000040001F9
:04000E00E4FFFFFF0D
:00000001FF
